{
  "address": "0xfdDC84bF1AF715704f55ee7C62EE447a45a583fB",
  "abi": [
    {
      "inputs": [
        {
          "internalType": "address",
          "name": "exampleExternalContractAddress",
          "type": "address"
        }
      ],
      "stateMutability": "nonpayable",
      "type": "constructor"
    },
    {
      "anonymous": false,
      "inputs": [
        {
          "indexed": true,
          "internalType": "address",
          "name": "staker",
          "type": "address"
        },
        {
          "indexed": false,
          "internalType": "uint256",
          "name": "amount",
          "type": "uint256"
        }
      ],
      "name": "Stake",
      "type": "event"
    },
    {
      "inputs": [
        {
          "internalType": "address",
          "name": "",
          "type": "address"
        }
      ],
      "name": "balances",
      "outputs": [
        {
          "internalType": "uint256",
          "name": "",
          "type": "uint256"
        }
      ],
      "stateMutability": "view",
      "type": "function"
    },
    {
      "inputs": [],
      "name": "deadline",
      "outputs": [
        {
          "internalType": "uint256",
          "name": "",
          "type": "uint256"
        }
      ],
      "stateMutability": "view",
      "type": "function"
    },
    {
      "inputs": [],
      "name": "exampleExternalContract",
      "outputs": [
        {
          "internalType": "contract ExampleExternalContract",
          "name": "",
          "type": "address"
        }
      ],
      "stateMutability": "view",
      "type": "function"
    },
    {
      "inputs": [],
      "name": "execute",
      "outputs": [],
      "stateMutability": "nonpayable",
      "type": "function"
    },
    {
      "inputs": [],
      "name": "openForWithdraw",
      "outputs": [
        {
          "internalType": "bool",
          "name": "",
          "type": "bool"
        }
      ],
      "stateMutability": "view",
      "type": "function"
    },
    {
      "inputs": [],
      "name": "stake",
      "outputs": [],
      "stateMutability": "payable",
      "type": "function"
    },
    {
      "inputs": [],
      "name": "threshold",
      "outputs": [
        {
          "internalType": "uint256",
          "name": "",
          "type": "uint256"
        }
      ],
      "stateMutability": "view",
      "type": "function"
    },
    {
      "inputs": [],
      "name": "timeLeft",
      "outputs": [
        {
          "internalType": "uint256",
          "name": "",
          "type": "uint256"
        }
      ],
      "stateMutability": "view",
      "type": "function"
    },
    {
      "inputs": [],
      "name": "withdraw",
      "outputs": [],
      "stateMutability": "nonpayable",
      "type": "function"
    },
    {
      "stateMutability": "payable",
      "type": "receive"
    }
  ],
  "transactionHash": "0xe686beeaa6295aea028c34c93076b4670d0a04e793954f102e0f6c985663121d",
  "args": [
    "0xd9bCBA0061fc8Ac143B6aC2860dD3bf3fDB39187"
  ],
  "numDeployments": 1,
  "solcInputHash": "e7d34554220dccad359bfd0a1b895684",
  "bytecode": "0x6080604052610011426203f48061006e565b6002556003805460ff1916905534801561002a57600080fd5b506040516107fd3803806107fd83398101604081905261004991610095565b600080546001600160a01b0319166001600160a01b03929092169190911790556100c5565b8082018082111561008f57634e487b7160e01b600052601160045260246000fd5b92915050565b6000602082840312156100a757600080fd5b81516001600160a01b03811681146100be57600080fd5b9392505050565b610729806100d46000396000f3fe60806040526004361061008a5760003560e01c80633ccfd60b116100595780633ccfd60b1461011157806342cde4e81461012657806361461954146101425780639876a643146101575780639f75f2271461018157600080fd5b80631300a6d11461009e57806327e235e3146100c657806329dcb0cf146100f35780633a4b66f11461010957600080fd5b36610099576100976101b9565b005b600080fd5b3480156100aa57600080fd5b506100b36102b3565b6040519081526020015b60405180910390f35b3480156100d257600080fd5b506100b36100e136600461061c565b60016020526000908152604090205481565b3480156100ff57600080fd5b506100b360025481565b6100976101b9565b34801561011d57600080fd5b506100976102d7565b34801561013257600080fd5b506100b3670de0b6b3a764000081565b34801561014e57600080fd5b506100976104b1565b34801561016357600080fd5b506003546101719060ff1681565b60405190151581526020016100bd565b34801561018d57600080fd5b506000546101a1906001600160a01b031681565b6040516001600160a01b0390911681526020016100bd565b60025442106102055760405162461bcd60e51b8152602060048201526013602482015272111958591b1a5b99481a185cc81c185cdcd959606a1b60448201526064015b60405180910390fd5b60035460ff16156102585760405162461bcd60e51b815260206004820152601860248201527f5374616b696e6720706572696f642068617320656e646564000000000000000060448201526064016101fc565b3360009081526001602052604081208054349290610277908490610662565b909155505060405134815233907febedb8b3c678666e7f36970bc8f57abf6d8fa2e828c0da91ea5b75bf68ed101a9060200160405180910390a2565b600060025442106102c45750600090565b426002546102d2919061067b565b905090565b60008054906101000a90046001600160a01b03166001600160a01b0316639d9a7fe96040518163ffffffff1660e01b8152600401602060405180830381865afa158015610328573d6000803e3d6000fd5b505050506040513d601f19601f8201168201806040525081019061034c919061068e565b156103695760405162461bcd60e51b81526004016101fc906106b0565b60035460ff166103bb5760405162461bcd60e51b815260206004820152601d60248201527f5769746864726177616c73206e6f7420617661696c61626c652079657400000060448201526064016101fc565b336000908152600160205260409020546104105760405162461bcd60e51b81526020600482015260166024820152754e6f2062616c616e636520746f20776974686472617760501b60448201526064016101fc565b33600081815260016020526040808220805490839055905190929083908381818185875af1925050503d8060008114610465576040519150601f19603f3d011682016040523d82523d6000602084013e61046a565b606091505b50509050806104ad5760405162461bcd60e51b815260206004820152600f60248201526e151c985b9cd9995c8819985a5b1959608a1b60448201526064016101fc565b5050565b60008054906101000a90046001600160a01b03166001600160a01b0316639d9a7fe96040518163ffffffff1660e01b8152600401602060405180830381865afa158015610502573d6000803e3d6000fd5b505050506040513d601f19601f82011682018060405250810190610526919061068e565b156105435760405162461bcd60e51b81526004016101fc906106b0565b6002544210156105955760405162461bcd60e51b815260206004820152601b60248201527f446561646c696e6520686173206e6f742070617373656420796574000000000060448201526064016101fc565b670de0b6b3a7640000471061060d5760008054906101000a90046001600160a01b03166001600160a01b031663522e1177476040518263ffffffff1660e01b81526004016000604051808303818588803b1580156105f257600080fd5b505af1158015610606573d6000803e3d6000fd5b5050505050565b6003805460ff19166001179055565b60006020828403121561062e57600080fd5b81356001600160a01b038116811461064557600080fd5b9392505050565b634e487b7160e01b600052601160045260246000fd5b808201808211156106755761067561064c565b92915050565b818103818111156106755761067561064c565b6000602082840312156106a057600080fd5b8151801515811461064557600080fd5b60208082526023908201527f45787465726e616c20636f6e747261637420616c726561647920636f6d706c656040820152621d195960ea1b60608201526080019056fea2646970667358221220fbac604b450525d40994733c1e2471c01648d20243ee5307426c8c1e2add177e64736f6c63430008140033",
  "devdoc": {
    "kind": "dev",
    "methods": {},
    "version": 1
  },
  "userdoc": {
    "kind": "user",
    "methods": {},
    "version": 1
  },
  "storageLayout": {
    "storage": [
      {
        "astId": 19,
        "contract": "contracts/Staker.sol:Staker",
        "label": "exampleExternalContract",
        "offset": 0,
        "slot": "0",
        "type": "t_contract(ExampleExternalContract)12"
      },
      {
        "astId": 23,
        "contract": "contracts/Staker.sol:Staker",
        "label": "balances",
        "offset": 0,
        "slot": "1",
        "type": "t_mapping(t_address,t_uint256)"
      },
      {
        "astId": 32,
        "contract": "contracts/Staker.sol:Staker",
        "label": "deadline",
        "offset": 0,
        "slot": "2",
        "type": "t_uint256"
      },
      {
        "astId": 35,
        "contract": "contracts/Staker.sol:Staker",
        "label": "openForWithdraw",
        "offset": 0,
        "slot": "3",
        "type": "t_bool"
      }
    ],
    "types": {
      "t_address": {
        "encoding": "inplace",
        "label": "address",
        "numberOfBytes": "20"
      },
      "t_bool": {
        "encoding": "inplace",
        "label": "bool",
        "numberOfBytes": "1"
      },
      "t_contract(ExampleExternalContract)12": {
        "encoding": "inplace",
        "label": "contract ExampleExternalContract",
        "numberOfBytes": "20"
      },
      "t_mapping(t_address,t_uint256)": {
        "encoding": "mapping",
        "key": "t_address",
        "label": "mapping(address => uint256)",
        "numberOfBytes": "32",
        "value": "t_uint256"
      },
      "t_uint256": {
        "encoding": "inplace",
        "label": "uint256",
        "numberOfBytes": "32"
      }
    }
  }
}